:2000000075303375313275323175333675343575353475363975373875383775393D753A78
:2000200030753B2BE4F53CF53DF53EF53FF540F54312025B120215D200D201D20212022154
:200040007AF77C007B007580FFEA528074705580FEBE7003020152EEF4FD74705DC4035410
:2000600007FEEC75F003A42430FD2EF9873C742BB53C0474018001E4FE7005742AB53C0DCB
:2000800075430175822BC006120283D006743DB53C0280057423B53C3D75823D120283E5B4
:2000A0003F253DF541E540353EF5428541828542831202D0AD828D5D854182854283C005B4
:2000C0001201B285824685834785F048D0058D82120175020164E543703AC006853D5E85F2
:2000E0003E5F90000AC006120335858244858345D006AE3C7F00EE24D0FEEF34FFFFEE25CE
:2001000044F53DEF3545F53E853C82C006120283D006D006E543604CEE7049742AB53C0275
:200120008042853F5E85405F90000A120335858244858345AD3C7F00ED24D0FDEF34FFFFD4
:20014000ED2544F53FEF3545F540853C821202838012EAC313FA4302F00B8B04BB04005073
:2001600003020046743DB53C01227423B53C02800302004022AF82EF60378F057E001DBD5B
:20018000FF011EEECD25E0CD33FEED2546FDEE3547FEAC488D828E838CF012039FFDA312D0
:2001A000039F74302DF582C007120283D0071F80C622AE82AF837D00C3ED955D5044ED2D6A
:2001C0002449F9755E0A755F008E828F83C007C006C005C001120352E5828583F0D001D06C
:2001E00005D006D007F709A7F019755E0A755F008E828F83C00512030CAE82AF83D0050DA0
:2002000080B690004975F04022C2B3759002D2B2C2B20202C6C2B3759006D2B2C2B202024E
:20022000BDC297C296C295C294D293A2009292A2019291A2029290D2B2C2B20202BDC2B3BE
:20024000C297C296C295D294A2039293A2049292C291C290D2B2C2B20202BDC2B37590388C
:20026000D2B2C2B20202BDC2B3759001D2B2C2B20202C6AF82C2B374804FF590D2B2C2B222
:200280000202BDAF82D2B38F90D2B2C2B20202BDAD82AE83AFF08D828E838FF012039FFCC1
:2002A000A3AD82AE83ECFB60138B82C007C006C005120283D005D006D00780DA227F32EF4D
:2002C00014FEFF70FA227FFF8F061EEEFF70F922AE82AF83C3EE940AEF9400500475820158
:2002E00022C3EE9464EF9400500475820222C3EE94E8EF9403500475820322C3EE9410EFDA
:0C030000942750047582042275820022AC
:20030C007A10E4FBFCE58225E0F582E58333F583EB33FBEC33FCEB955EF5F0EC955F400659
:09032C00FCABF0438201DADD2292
:1D033500E582855EF0A4C582C0F0855FF0A4D0F025F0C583855EF0A42583F5832288
:20035200E55E455F60467A01E55E25E0F55EE55F334012F55FE582955EE583955F40030AC8
:2003720080E6C3E55F13F55FE55E13F55EC3E582955EF5F0E583955F4005F58385F082C319
:0D039200E55F13F55FE55E13F55EDAE1222D
:1C039F0020F71430F6148883A88220F507E6A88375830022E280F7E49322E0226D
:00000001FF
