:06000000020B3902034669
:03000B000200B63A
:0300130002039F46
:0300650002001680
:030016000200687D
:10006800120AA9120A63D201D202D203120A6F90AD
:100078000BEE75F080120ADE758240120AC1900BF1
:10008800F775F080120ADED288D28A75A887E4F55F
:1000980030F531F532F533F534F535753601F53788
:1000A800753801F539F53AF53B120B1E80FBC02176
:1000B800C0E0C0F0C082C083C007C006C005C0044D
:1000C800C003C002C001C000C0D075D008C3E5306D
:1000D800943BE5319400501D0530E4B530020531FC
:1000E80085305285315375820675D000120A227503
:1000F800D008020329743BB53006E4B53102800309
:10010800020329E4F530F531F552F5537582067589
:10011800D000120A2275D008C3E532943BE5339427
:1001280000501D0532E4B53202053385325285335D
:100138005375820375D000120A2275D0080203296C
:10014800743BB53206E4B533028003020329E4F5B3
:1001580032F533F552F55375820375D000120A2231
:1001680075D008C3E5349417E5359400501D05345F
:10017800E4B53402053585345285355375820075EA
:10018800D000120A2275D0080203297417B5340664
:10019800E4B535028003020329E4F534F535F55258
:1001A800F55375820075D000120A2275D008C3E590
:1001B80036941CE5379400501D0536E4B536020523
:1001C8003785365285375375824075D000120A221A
:1001D80075D008020329741CB53606E4B5370280C9
:1001E8000280427402B53806E4B5390280028035CF
:1001F8007536017537007552017553007582407563
:10020800D000120A2275D0080538E4B5380205393D
:1002180085385285395375824375D000120A227584
:10022800D008020329741EB53606E4B537028002E9
:1002380080637404B53806E4B5390280237406B5C2
:100248003806E4B5390280187409B53806E4B539BA
:1002580002800D740BB53806E4B53902800280358A
:1002680075360175370075520175530075824075F2
:10027800D000120A2275D0080538E4B538020539CD
:1002880085385285395375824375D000120A227514
:10029800D008020329741FB53606E4B53702800377
:1002A80002032975360175370075520175530075BB
:1002B800824075D000120A2275D008C3E538940C24
:1002C800E5399400501C0538E4B5380205398538FD
:1002D8005285395375824375D000120A2275D008A9
:1002E800803F740CB53806E4B53902800280327557
:1002F800380175390075520175530075824375D000
:1003080000120A2275D008053AE4B53A02053B8581
:100318003A52853B5375824675D000120A2275D031
:1003280008D0D0D000D001D002D003D004D005D05E
:1003380006D007D083D082D0F0D0E0D02132C021BF
:10034800C0E0C0F0C082C083C007C006C005C004BA
:10035800C003C002C001C000C0D075D008758208B3
:1003680075D000120AC175D008E4F53CF53D90003F
:100378000175D0001203F975D008D0D0D000D00193
:10038800D002D003D004D005D006D007D083D082C5
:10039800D0F0D0E0D02132C021C0E0C0F0C082C08F
:1003A80083C007C006C005C004C003C002C001C0A6
:1003B80000C0D075D00875824875D000120AC17582
:1003C800D008753C01753D0090000075D0001203FF
:1003D800F975D008D0D0D000D001D002D003D00415
:1003E800D005D006D007D083D082D0F0D0E0D0217D
:1003F8003285823E85833F7540337541327542317F
:1004080075433675443575453475463975473875BD
:100418004837754923754A30754B2A754D00754E16
:1004280008754F48E53E453F6006A2B29200800439
:10043800A2B39200300003020A097AF77D007580A2
:10044800FFEA528074705580FFBF70030209F6EF0F
:10045800F4FE74705EC4035407FFED75F003A42422
:1004680040FE2FF9874CE53E453F70030206CFE575
:100478004D7003020684742AB54C03020684742363
:10048800B54C030206847408B54E0280977406B50D
:100498004E4CAB4C7E00EB24D0FBEE34FFFE8B546D
:1004A8008E5590000A120B688582508583517554C9
:1004B8000A755500853082853183120B85AC82AF71
:1004C80083EC2550FBEF3551FEC3743B9BE49E50F3
:1004D8000302042C8B308E31854C82120AD17407AA
:1004E800B54E4EAC4C7F00EC24D0FBEF34FFFE75CC
:1004F800540A8F55853082853183C006C003120B9C
:100508003F85825485835590000A120B68E58285E1
:1005180083F0D003D0062BFBEE35F0FEC3743B9B73
:10052800E49E500302042C8B308E31854C82120AD3
:10053800D17403B54E4CAC4C7F00EC24D0FBEF34A7
:10054800FFFE8B548E5590000A120B6885825085E9
:10055800835175540A755500853282853383120B91
:1005680085AC82AF83EC2550FBEF3551FEC3743B5D
:100578009BE49E500302042C8B328E33854C8212EE
:100588000AD17404B54E4EAC4C7F00EC24D0FBEF7E
:1005980034FFFE75540A8F55853282853383C00631
:1005A800C003120B3F85825485835590000A120BB5
:1005B80068E5828583F0D003D0062BFBEE35F0FE8C
:1005C800C3743B9BE49E500302042C8B328E33850C
:1005D8004C82120AD1E54E704BAC4CFFEC24D0FB98
:1005E800EF34FFFE8B548E5590000A120B688582FB
:1005F8005085835175540A75550085348285358335
:10060800120B85AC82AF83EC2550FBEF3551FEC34E
:1006180074179BE49E500302042C8B348E35854C52
:1006280082120AD17401B54E4EAC4C7F00EC24D036
:10063800FBEF34FFFE75540A8F5585348285358368
:10064800C006C003120B3F85825485835590000A6B
:10065800120B68E5828583F0D003D0062BFBEE35BC
:10066800F0FEC374179BE49E500302042C8B348E57
:1006780035854C82120AD1054E02042C742AB54CD9
:100688001C754D01E54E700C758208120AC1754E35
:100698000802042CC204C205120A8C154E7423B534
:1006A8004C02800302042C754D017407B54E0C757D
:1006B8008200120AC1754E0002042CC204D205122F
:1006C8000A8C054E02042CE53C453D70030209F6F0
:1006D800E54D70030209AA742AB54C030209AA74ED
:1006E80023B54C030209AA7448B54F0302042C74BD
:1006F80046B54F3FAC4C7F00EC24D0FBEF34FFFEF7
:100708008B548E5590000A120B6885825085835150
:1007180075540A755500853A82853B83120B85AC62
:1007280082AF83EC2550F53AEF3551F53B854C8285
:10073800120AD17447B54F41AC4C7F00EC24D0FB72
:10074800EF34FFFE75540A8F55853A82853B83C086
:1007580006C003120B3F85825485835590000A1208
:100768000B68E5828583F0D003D0062BF53AEE3589
:10077800F0F53B854C82120AD17443B54F58AC4C06
:100788007F00EC24D0FBEF34FFFE8B548E55900095
:100798000A120B6885825085835175540A75550075
:1007A800853882853983120B85AC82AF83EC25505E
:1007B800FBEF3551FEC3EB9401EE940050030204A5
:1007C8002CC3740C9BE49E500302042C8B388E3986
:1007D800854C82120AD17444B54F5AAC4C7F00EC58
:1007E80024D0FBEF34FFFE75540A8F558538828577
:1007F8003983C006C003120B3F8582548583559008
:10080800000A120B68E5828583F0D003D0062BFB23
:10081800EE35F0FEC3EB9401EE9400500302042C75
:10082800C3740C9BE49E500302042C8B388E3985CC
:100838004C82120AD17440B54F0280030208F0AC12
:100848004C7F00EC24D0FBEF34FFFE8B548E559088
:10085800000A120B6885825085835175540A7555B4
:1008680000853682853783120B85AC82AF83EC25F1
:1008780050FBEF3551FEC3EB9401EE940050030298
:10088800042CC3741F9BE49E500302042C7402B50D
:100898003806E4B539028002800BC3741C9BE49EC1
:1008A800500302042C7404B53806E4B539028023D9
:1008B8007406B53806E4B5390280187409B53806E7
:1008C800E4B53902800D740BB53806E4B5390280F9
:1008D80002800BC3741E9BE49E500302042C8B36CB
:1008E8008E37854C82120AD17441B54F02800302BB
:1008F80009A5AC4C7F00EC24D0FBEF34FFFE755407
:100908000A8F55853682853783C006C003120B3F90
:1009180085825485835590000A120B68E582858389
:10092800F0D003D0062BFBEE35F0FEC3EB9401EEBE
:100938009400500302042CC3741F9BE49E500302CE
:10094800042C7402B53806E4B539028002800BC362
:10095800741C9BE49E500302042C7404B53806E40E
:10096800B5390280237406B53806E4B53902801813
:100978007409B53806E4B53902800D740BB538062C
:10098800E4B539028002800BC3741E9BE49E5003B9
:1009980002042C8B368E37854C82120AD1054F0201
:1009A800042C742AB54C1D754D017440B54F0C7557
:1009B8008248120AC1754F4802042CC204C20512AB
:1009C8000A8C154F7423B54C02800302042C754D14
:1009D800017447B54F0C758240120AC1754F400229
:1009E800042CC204D205120A8C054F02042CEAC357
:1009F80013FA4302F00DBD0400500302044602043A
:100A08002CE53E453F6006758208020AC1E53C4573
:100A18003D6006758248020AC122120AC175540A4D
:100A2800755500855282855383120B3FAE82743010
:100A38002EF582120AD175540A75550085528285A1
:100A48005383120B85AE8274302EF582020AD1C20E
:100A5800A3759002D2A2C2A2020B14C2A37590067B
:100A6800D2A2C2A2020B0BC297C296C295C294D25E
:100A780093A2019292A2029291A2039290D2A2C250
:100A8800A2020B0BC2A3C297C296C295D294A2042B
:100A98009293A2059292C291C290D2A2C2A2020BD4
:100AA8000BC2A3759038D2A2C2A2020B0BC2A375C7
:100AB8009001D2A2C2A2020B14AF82C2A374804FCB
:100AC800F590D2A2C2A2020B0BAF82D2A38F90D212
:100AD800A2C2A2020B0BAD82AE83AFF08D828E83D1
:100AE8008FF0120BD2FCA3AD82AE83ECFB60138BAC
:100AF80082C007C006C005120AD1D005D006D007AB
:100B080080DA227F32EF14FEFF70FA227FFF8F0611
:100B18001EEEFF70F9227589017F14EF6012758A45
:100B2800AF758C3CD28C308DFDC28CC28D1F80EB92
:070B38002275815F020068D5
:100BEE0030303A30303A30300030312D30312D3017
:020BFE003000C5
:100B3F007A10E4FBFCE58225E0F582E58333F5834B
:100B4F00EB33FBEC33FCEB9554F5F0EC955540068D
:090B5F00FCABF0438201DADD2257
:06003B00E478FFF6D8FD99
:100019007900E94400601B7A00900C00780175A012
:1000290000E493F2A308B8000205A0D9F4DAF27546
:02003900A0FF26
:100B6800E5828554F0A4C582C0F08555F0A4D0F084
:100B780025F0C5838554F0A42583F58322E55445E3
:100B88005560467A01E55425E0F554E555334012A1
:100B9800F555E5829554E583955540030A80E6C3EB
:100BA800E55513F555E55413F554C3E5829554F509
:100BB800F0E58395554005F58385F082C3E5551327
:0A0BC800F555E55413F554DAE12267
:100041007800E84400600A790175A000E4F309D85A
:10005100FC7800E84400600C7900900001E4F0A312
:04006100D8FCD9FAF4
:100BD20020F71430F6148883A88220F507E6A8834C
:0C0BE20075830022E280F7E49322E022F9
:00000001FF
